{
  "contractName": "Crud",
  "abi": [
    {
      "inputs": [],
      "name": "nextId",
      "outputs": [
        {
          "internalType": "uint256",
          "name": "",
          "type": "uint256"
        }
      ],
      "stateMutability": "view",
      "type": "function"
    },
    {
      "inputs": [
        {
          "internalType": "uint256",
          "name": "",
          "type": "uint256"
        }
      ],
      "name": "users",
      "outputs": [
        {
          "internalType": "uint256",
          "name": "id",
          "type": "uint256"
        },
        {
          "internalType": "string",
          "name": "name",
          "type": "string"
        }
      ],
      "stateMutability": "view",
      "type": "function"
    },
    {
      "inputs": [
        {
          "internalType": "string",
          "name": "name",
          "type": "string"
        }
      ],
      "name": "create",
      "outputs": [],
      "stateMutability": "nonpayable",
      "type": "function"
    },
    {
      "inputs": [
        {
          "internalType": "uint256",
          "name": "id",
          "type": "uint256"
        }
      ],
      "name": "read",
      "outputs": [
        {
          "internalType": "uint256",
          "name": "",
          "type": "uint256"
        },
        {
          "internalType": "string",
          "name": "",
          "type": "string"
        }
      ],
      "stateMutability": "view",
      "type": "function"
    },
    {
      "inputs": [
        {
          "internalType": "uint256",
          "name": "id",
          "type": "uint256"
        },
        {
          "internalType": "string",
          "name": "name",
          "type": "string"
        }
      ],
      "name": "update",
      "outputs": [],
      "stateMutability": "nonpayable",
      "type": "function"
    },
    {
      "inputs": [
        {
          "internalType": "uint256",
          "name": "id",
          "type": "uint256"
        }
      ],
      "name": "destroy",
      "outputs": [],
      "stateMutability": "nonpayable",
      "type": "function"
    }
  ],
  "bytecode": "0x60806040526001805534801561001457600080fd5b50610813806100246000396000f3fe608060405234801561001057600080fd5b50600436106100725760003560e01c8063b6a46b3b11610050578063b6a46b3b146100cd578063ed2e5a97146100e0578063f745630f146100f357600080fd5b8063365b98b21461007757806361b8ce8c146100a15780639d118770146100b8575b600080fd5b61008a6100853660046104c1565b610106565b6040516100989291906104da565b60405180910390f35b6100aa60015481565b604051908152602001610098565b6100cb6100c63660046104c1565b6101be565b005b6100cb6100db3660046105d3565b610204565b61008a6100ee3660046104c1565b61029f565b6100cb610101366004610610565b61038f565b6000818154811061011657600080fd5b6000918252602090912060029091020180546001820180549193509061013b90610657565b80601f016020809104026020016040519081016040528092919081815260200182805461016790610657565b80156101b45780601f10610189576101008083540402835291602001916101b4565b820191906000526020600020905b81548152906001019060200180831161019757829003601f168201915b5050505050905082565b60006101c9826103cd565b9050600081815481106101de576101de610691565b600091825260208220600290910201818155906101fe600183018261046b565b50505050565b60408051808201909152600180548252602082018381526000805492830181558052825160029092027f290decd9548b62a8d60345a988386fc84ba6bc95484008f6362f93160ef3e563810192835590517f290decd9548b62a8d60345a988386fc84ba6bc95484008f6362f93160ef3e5649091019061028490826106f6565b50506001805491506000610297836107b6565b919050555050565b6000606060006102ae846103cd565b9050600081815481106102c3576102c3610691565b906000526020600020906002020160000154600082815481106102e8576102e8610691565b906000526020600020906002020160010180805461030590610657565b80601f016020809104026020016040519081016040528092919081815260200182805461033190610657565b801561037e5780601f106103535761010080835404028352916020019161037e565b820191906000526020600020905b81548152906001019060200180831161036157829003601f168201915b505050505090509250925050915091565b600061039a836103cd565b905081600082815481106103b0576103b0610691565b906000526020600020906002020160010190816101fe91906106f6565b6000805b60005481101561041e5782600082815481106103ef576103ef610691565b9060005260206000209060020201600001540361040c5792915050565b80610416816107b6565b9150506103d1565b5060405162461bcd60e51b815260206004820152601460248201527f5573657220646f6573206e6f7420657869737421000000000000000000000000604482015260640160405180910390fd5b50805461047790610657565b6000825580601f10610487575050565b601f0160209004906000526020600020908101906104a591906104a8565b50565b5b808211156104bd57600081556001016104a9565b5090565b6000602082840312156104d357600080fd5b5035919050565b82815260006020604081840152835180604085015260005b8181101561050e578581018301518582016060015282016104f2565b506000606082860101526060601f19601f830116850101925050509392505050565b634e487b7160e01b600052604160045260246000fd5b600082601f83011261055757600080fd5b813567ffffffffffffffff8082111561057257610572610530565b604051601f8301601f19908116603f0116810190828211818310171561059a5761059a610530565b816040528381528660208588010111156105b357600080fd5b836020870160208301376000602085830101528094505050505092915050565b6000602082840312156105e557600080fd5b813567ffffffffffffffff8111156105fc57600080fd5b61060884828501610546565b949350505050565b6000806040838503121561062357600080fd5b82359150602083013567ffffffffffffffff81111561064157600080fd5b61064d85828601610546565b9150509250929050565b600181811c9082168061066b57607f821691505b60208210810361068b57634e487b7160e01b600052602260045260246000fd5b50919050565b634e487b7160e01b600052603260045260246000fd5b601f8211156106f157600081815260208120601f850160051c810160208610156106ce5750805b601f850160051c820191505b818110156106ed578281556001016106da565b5050505b505050565b815167ffffffffffffffff81111561071057610710610530565b6107248161071e8454610657565b846106a7565b602080601f83116001811461075957600084156107415750858301515b600019600386901b1c1916600185901b1785556106ed565b600085815260208120601f198616915b8281101561078857888601518255948401946001909101908401610769565b50858210156107a65787850151600019600388901b60f8161c191681555b5050505050600190811b01905550565b6000600182016107d657634e487b7160e01b600052601160045260246000fd5b506001019056fea264697066735822122095ee6d06986893697ca8ccf6b2e0b9a375408b09f1af61be96e75c0643b9307064736f6c63430008110033",
  "immutableReferences": {},
  "source": "// SPDX-License-Identifier: MIT\npragma solidity ^0.8.9;\n\ncontract Crud {\n  struct User {\n    uint id;\n    string name;\n  }\n  User[] public users;\n  uint public nextId = 1;\n\n  function create(string memory name) public {\n    users.push(User(nextId, name));\n    nextId++;\n  }\n\n  function read(uint id) view public returns(uint, string memory) {\n    uint i = find(id);\n    return(users[i].id, users[i].name);\n  }\n\n  function update(uint id, string memory name) public {\n    uint i = find(id);\n    users[i].name = name;\n  }\n\n  function destroy(uint id) public {\n    uint i = find(id);\n    delete users[i];\n  }\n\n  function find(uint id) view internal returns(uint) {\n    for(uint i = 0; i < users.length; i++) {\n      if(users[i].id == id) {\n        return i;\n      }\n    }\n    revert('User does not exist!');\n  }\n\n}\n// contract Simple {\n//     uint[] public data;\n\n//     function setData(uint d) public {\n//         data.push(d);\n//     }\n//     function getData(uint i) public view returns (uint){\n//         return data[i];\n//     }\n//     function getAll() public view returns (uint[] memory){\n//         return data;\n//     }\n//     function length() public view returns (uint){\n//         return data.length;\n//     }\n// }",
  "sourcePath": "/home/rayzia/Desktop/unitTestingTruffle/contracts/Simple.sol",
  "compiler": {
    "name": "solc",
    "version": "0.8.17+commit.8df45f5f.Emscripten.clang"
  },
  "schemaVersion": "3.4.10",
  "updatedAt": "2023-01-05T10:25:22.198Z",
  "devdoc": {
    "kind": "dev",
    "methods": {},
    "version": 1
  },
  "userdoc": {
    "kind": "user",
    "methods": {},
    "version": 1
  }
}